:100000000C9435010C9466010C9466010C94660105
:100010000C9466010C9466010C9466010C946601C4
:100020000C9466010C9466010C9466010C946601B4
:100030000C9466010C9466010C9466010C946601A4
:100040000C9466010C9466010C9466010C94660194
:100050000C9466010C9466010C9466010C94F604F1
:100060000C9466010C946A050C9440050C9466018E
:100070000C9466010C9466010C9466010C94660164
:100080000C9466010C9466010C9466010C94660154
:100090000C9466010C9466010C9466010C94660144
:1000A0000C9466010C9466010C9466010C94660134
:1000B0000C9466010C9466010C9466010C94660124
:1000C0000C9466010C9466010C9466010C94660114
:1000D0000C9466010C9466010C9466010C94660104
:1000E0000C9466010C94C3030C94AB010C94CB01EB
:1000F0000C94C7010C94C1010C945A030C947D0319
:100100000C9498010C94BD010C9494010C94B901C9
:100110000C94B3010C942D030C949B010C948C0152
:100120000C9486010C9410040C94A1010C948B0384
:100130000C94A5010C94C6010C9469030C94480915
:100140000C9490010C94AF010000210024002700C2
:100150002A002D00300033000101000004010701D6
:100160000A0100002200250028002B002E0031008B
:10017000340002010000050108010B01000020000D
:100180002300260029002C002F003200000100006F
:10019000030106010901050505050705080808080A
:1001A000020202020A0A080804040404010101010F
:1001B000010101010303030303030303040707070A
:1001C0000C0C0C0C0C0C0C0C0202020206060606AF
:1001D000060606060B0B0B0B0B0B0B0B010210207C
:1001E000200808102040102040800201020108046D
:1001F0000201010204081020408080402010080401
:100200000201800402018040201008040201080459
:10021000020101020408102040800102040810209D
:10022000408000000A0B02090C0D0E0807030401B0
:1002300000000000000000000000000000000000BE
:10024000000000000000000000000000000012118B
:10025000100000000000000000000000000000008E
:100260000000000000000000480911241FBECFEF6D
:10027000D1E2DEBFCDBF00E00CBF12E0A0E0B2E0F3
:10028000E0E1F3E100E00BBF02C007900D92A23362
:10029000B107D9F723E0A2E3B2E001C01D92AF3568
:1002A000B207E1F711E0C5E3D1E000E006C0219715
:1002B0000109802FFE010E947509C433D10780E037
:1002C0000807A9F70E94A0050C9486090C94000069
:1002D0008150823108F05AC0E82FF0E08827EC58AE
:1002E000FE4F8F4F0C9475099401980186018C0183
:1002F0009001C6019B01A101A501AB01AF01B301B2
:10030000B901BD01C601C101C701CB0180918000C7
:100310008F77809380000895809180008F7DF9CF42
:1003200080918000877FF5CF84B58F7784BD089555
:1003300084B58F7DFBCF8091B0008F778093B00024
:1003400008958091B0008F7DF9CF809190008F77D4
:10035000809390000895809190008F7DF9CF8091D7
:100360009000877FF5CF8091A0008F778093A000C9
:1003700008958091A0008F7DF9CF8091A000877FA4
:10038000F5CF809120018F7780932001089580918F
:1003900020018F7DF9CF80912001877FF5CFCF930A
:1003A000DF93282F30E0F901EE5DFD4F8491F901D4
:1003B000E452FE4FD491F901EA56FE4FC491CC238A
:1003C000A1F081110E946801EC2FF0E0EE0FFF1FF9
:1003D000E458FE4FA591B491EC91ED2381E090E0BB
:1003E00009F480E0DF91CF91089580E090E0FACFAA
:1003F0001F93CF93DF93282F30E0F901EE5DFD4F7F
:100400008491F901E452FE4FD491F901EA56FE4F6E
:10041000C491CC23A9F0162F81110E946801EC2F02
:10042000F0E0EE0FFF1FEE59FE4FA591B4918FB78C
:10043000F894EC91111108C0D095DE23DC938FBFA6
:10044000DF91CF911F910895DE2BF8CFCF93DF93EB
:1004500090E0FC01E452FE4F24918A569E4FFC012D
:1004600084918823D1F090E0880F991FFC01E85B0C
:10047000FE4FA591B491FC01EE59FE4FC591D49168
:1004800061110EC09FB7F8948C91E22FE0958E23F6
:100490008C932881E223E8839FBFDF91CF91089559
:1004A0008FB7F894EC91E22BEC938FBFF6CF3FB768
:1004B000F8948091BD029091BE02A091BF02B091CC
:1004C000C00226B5A89B05C02F3F19F00196A11DBB
:1004D000B11D3FBFBA2FA92F982F8827BC01CD018E
:1004E000620F711D811D911D42E0660F771F881FED
:1004F000991F4A95D1F708952FB7F8946091B902E2
:100500007091BA028091BB029091BC022FBF0895F6
:100510008F929F92AF92BF92CF92DF92EF92FF9213
:100520006C010E947C024B015C010D2C000CEE085A
:10053000FF0887E00E94CF01892BA9F00E947C026E
:10054000681979098A099B09C616D706E806F906CB
:1005500080F780E0FF90EF90DF90CF90BF90AF905A
:100560009F908F90089581E0F5CF8F929F92AF92E8
:10057000BF92CF92DF92EF92FF926C010E947C02B9
:100580004B015C010D2C000CEE08FF0887E00E9477
:10059000CF01892BA9F40E947C02681979098A0984
:1005A0009B09C616D706E806F90680F780E0FF909B
:1005B000EF90DF90CF90BF90AF909F908F90089575
:1005C00081E0F5CFEF92FF920F931F93CF93DF93CC
:1005D000EC0183EC90E00197F1F704E010E061E0BA
:1005E000C7FF60E082E00E94F80160E083E00E94C3
:1005F000F8017E01EE0CFF1C80ED97E00E9488025E
:100600008823D1F061E0E7FE60E082E00E94F8011B
:1006100061E083E00E94F801CC0FDD1FCC0FDD1FED
:1006200080ED97E00E94B502882331F00150110956
:10063000B1F690E080E00AC060E083E00E94F8013B
:1006400060E082E00E94F80181E090E0DF91CF91CC
:100650001F910F91FF90EF900895AF92BF92CF92AC
:10066000DF92EF92FF920F931F93CF93DF936C0172
:100670007B018B01040F151FEB015E01AE18BF0853
:10068000C017D10759F06991D601ED91FC91019005
:10069000F081E02DC6011995892B79F7C501DF910D
:1006A000CF911F910F91FF90EF90DF90CF90BF906F
:1006B000AF900895FC01538D448D252F30E0842F99
:1006C00090E0821B930B541710F0CF96089501977A
:1006D0000895FC01918D828D981761F0A28DAE0F67
:1006E000BF2FB11D5D968C91928D9F5F9F73928FEE
:1006F00090E008958FEF9FEF0895FC01918D828D1A
:10070000981731F0828DE80FF11D858D90E00895E6
:100710008FEF9FEF0895FC01918D228D892F90E03E
:10072000805C9F4F821B91098F739927089582ECFB
:1007300092E00E948B0321E0892B09F420E0822FB4
:100740000895FC01A48DA80FB92FB11DA35ABF4F66
:100750002C91848D90E001968F739927848FA689C0
:10076000B7892C93A089B1898C91837080648C9314
:10077000938D848D981306C00288F389E02D8081C3
:100780008F7D80830895EF92FF920F931F93CF93F5
:10079000DF93EC0181E0888F9B8D8C8D98131AC0BC
:1007A000E889F989808185FF15C09FB7F894EE89A3
:1007B000FF896083E889F989808183708064808300
:1007C0009FBF81E090E0DF91CF911F910F91FF904B
:1007D000EF900895F62E0B8D10E00F5F1F4F0F73F3
:1007E0001127E02E8C8D8E110CC00FB607FCFACFAE
:1007F000E889F989808185FFF5CFCE010E94A103A8
:10080000F1CFEB8DEC0FFD2FF11DE35AFF4FF0827E
:100810009FB7F8940B8FEA89FB8980818062CFCFE4
:10082000CF93DF93EC01888D8823B9F0AA89BB8927
:10083000E889F9898C9185FD03C0808186FD0DC012
:100840000FB607FCF7CF8C9185FFF2CF808185FF33
:10085000EDCFCE010E94A103E9CFDF91CF910895A2
:1008600080E090E0892B29F00E94970381110E947B
:10087000000080E090E0892B49F080E090E0892B37
:1008800029F00E94000081110E94000080E090E0A9
:10089000892B49F080E090E0892B29F00E9400002C
:1008A00081110E94000080E090E0892B49F080E0F7
:1008B00090E0892B29F00E94000081110C94000027
:1008C0000895EF92FF920F931F93CF93DF937C01D4
:1008D00004E010E0D0E0C0E0C7010E948802882355
:1008E00031F1CC0FDD1F88E00E94CF01C82BD92B3E
:1008F00060E083E00E94F801C7010E94B5028823EE
:10090000B1F0CC0FDD1F88E00E94CF01C82BD92B9E
:1009100061E083E00E94F80101501109E9F6CE017F
:10092000DF91CF911F910F91FF90EF90089560E0BC
:1009300083E00E94F8018FEF9FEFF2CF80ED97E008
:100940000E94610497FD05C02091C102280F2093E9
:10095000C102089566E082EC92E00C94C303CF9349
:10096000C82F65E182EC92E00E94C3036C2F82ECF9
:1009700092E0CF910C94C303009721F00E94AF0442
:1009800081E0089580E0089597FF07C091958195D3
:1009900091090E94AF0481E0089580E00895FC0170
:1009A00001900020E9F73197AF01481B590BBC01BA
:1009B00082EC92E00C942D03CF93DF93CDB7DEB79A
:1009C000A1970FB6F894DEBF0FBECDBF19A2805D10
:1009D00088A3CE0180960E94CF04A1960FB6F8940A
:1009E000DEBF0FBECDBFDF91CF9108951F920F9252
:1009F0000FB60F9211242F933F938F939F93AF9332
:100A0000BF938091B9029091BA02A091BB02B091BC
:100A1000BC023091B80223E0230F2D3758F5019620
:100A2000A11DB11D2093B8028093B9029093BA0220
:100A3000A093BB02B093BC028091BD029091BE0214
:100A4000A091BF02B091C0020196A11DB11D80937B
:100A5000BD029093BE02A093BF02B093C002BF91AB
:100A6000AF919F918F913F912F910F900FBE0F905B
:100A70001F90189526E8230F0296A11DB11DD2CF15
:100A80001F920F920FB60F9211240BB60F922F9355
:100A90003F934F935F936F937F938F939F93AF9306
:100AA000BF93EF93FF9382EC92E00E94A103FF912A
:100AB000EF91BF91AF919F918F917F916F915F91D6
:100AC0004F913F912F910F900BBE0F900FBE0F9043
:100AD0001F9018951F920F920FB60F9211240BB60C
:100AE0000F922F938F939F93EF93FF93E091D202F6
:100AF000F091D3028081E091D802F091D90282FD79
:100B00001DC090818091DB028F5F8F732091DC028A
:100B1000821741F0E091DB02F0E0EE53FD4F958F3C
:100B20008093DB02FF91EF919F918F912F910F9016
:100B30000BBE0F900FBE0F901F9018958081F2CFC3
:100B4000789484B5826084BD84B5816084BD85B5A8
:100B5000826085BD85B5816085BD80916E008160B4
:100B600080936E001092810080918100826080935A
:100B7000810080918100816080938100809180005C
:100B80008160809380008091B10084608093B10087
:100B90008091B00081608093B0008091910082606C
:100BA0008093910080919100816080939100809169
:100BB00090008160809390008091A100826080937A
:100BC000A1008091A10081608093A1008091A0008C
:100BD00081608093A0008091210182608093210137
:100BE00080912101816080932101809120018160A9
:100BF0008093200180917A00846080937A008091B4
:100C00007A00826080937A0080917A00816080937C
:100C10007A0080917A00806880937A001092C100F7
:100C2000E091D202F091D30282E08083E091CE0283
:100C3000F091CF021082E091D002F091D10280E1D8
:100C400080831092DA02E091D602F091D70286E01A
:100C50008083E091D402F091D5028081806180830D
:100C6000E091D402F091D502808188608083E09188
:100C7000D402F091D502808180688083E091D40213
:100C8000F091D50280818F7D808360E087E00E94B3
:100C9000260260E088E00E94260261E083E00E9474
:100CA000260261E082E00E94260261E08DE00E945F
:100CB00026024BE8C42EDD24D39482EC92E00E94FD
:100CC0008B03892B09F4DFC082EC92E00E94690358
:100CD00066E18631910509F4D2C0019709F0D3C0CD
:100CE0000E947C024B015C0182EC92E00E948B032B
:100CF000892B71F40E947C02681979098A099B0981
:100D0000613D77408105910578F38FEF9FEF06C035
:100D100082EC92E00E94690397FF06C0919581954D
:100D200091090E94AF04AFC08330910509F4D7C088
:100D300054F48130910509F474C0029709F4A5C2F6
:100D400083E090E0EECF8430910509F4F7C0059779
:100D5000B9F71092C1028AE590E00E94E2020E9477
:100D6000BC04811190C088E893E10E946104EC0109
:100D70000E94C404811187C0C53AD10509F70E94B9
:100D80009E04D82FC92F0E94C40481117CC00E94E8
:100D90009E048C010E94C404811175C0C80117FF14
:100DA00002C090E080E0982F88270D2F1C2F17FF9E
:100DB00002C010E000E0082B192B62E082EC92E008
:100DC0000E94C303F12CE12CE016F1060CF01CC2CA
:100DD0000E949E04B82EA92E0E94C404811153C003
:100DE00082EC92E00E948B03892B09F001C2CB2D8B
:100DF000DA2DD7FF02C0D0E0C0E0C731D1050CF03A
:100E0000EAC1C531D1053CF4C330D10521F0C03170
:100E1000D10509F0E4C160E182EC92E00E94C303D5
:100E2000DEC161E082EC92E00E94C30361E082ECEB
:100E300092E00E94C30362E082EC92E00E94C3034E
:100E40006CE382EC92E00E94C30362E082EC92E0E9
:100E50000E94C30382E192E00E94CF0481E090E00F
:100E60000E94DC048CE292E00E94CF0482E090E0D9
:100E70000E94DC048EE292E00E94CF0463E082ECE8
:100E800092E00E94C3030E947C020091B402109180
:100E9000B5022091B6023091B7024B015C01801A75
:100EA000910AA20AB30A95018401083E1340210564
:100EB000310590F06093B4027093B5028093B6024E
:100EC0009093B7028DE00E94CF0161E0892B09F079
:100ED00060E08DE00E94F8010E943004EECE88E8C8
:100EE00093E10E94B50288E893E10E946104EC015D
:100EF0000E94C4048111C7CFCA35D10509F4C5C108
:100F000080ED97E00E948802882389F060E083E00A
:100F10000E94F80180ED97E00E94B502882339F025
:100F200061E083E00E94F80180ED97E0DECF60E0B1
:100F300083E00E94F80181E090E0F3CE0E947C0201
:100F40004B015C0182EC92E00E948B03029774F4E7
:100F50000E947C02681979098A099B09613D7740E2
:100F60008105910578F3CFEFDFEF0CC082EC92E0C2
:100F70000E946903EC0182EC92E00E946903612CFB
:100F8000C629D82BCE010E94C40481117CCF8E01CA
:100F9000D7FF02C010E000E010926F0210926E02C4
:100FA00010927102109270029CE380E0CD33D10563
:100FB00014F4902F812F9093AE028093AF02109281
:100FC000B1021092B0021093B3020093B2021092D9
:100FD000C1021C161D060CF056CF80ED97E00E9452
:100FE0006104EC010E94C40481114DCFCA35D105C2
:100FF00059F0C936D10589F3C53AD10571F3C6391F
:10100000D10509F09DCEE9CF0E94AA040E945702A3
:101010001B012C0132E3832E912CA12CB12C0E94B8
:1010200057026219730984099509683E7340810566
:101030009105A8F381E0881A9108A108B108E8EEAB
:101040002E0EE3E03E1E411C511C81149104A104AC
:10105000B10429F785EA90E00E94E2020E94BC04F4
:10106000811111CFD12FDD0FDD0BC02FC195C093A2
:10107000C102C80199270E94E2020E94BC048111AA
:1010800002CFC11BC093C102812F9D2F0E94E2029B
:101090000E94BC048111F7CE0E947C024B015C01CE
:1010A000C091B202D091B3021C161D060CF054C0C0
:1010B00082EC92E00E948B030091B0021091B10289
:1010C000E090AE02F090AF02181619069CF40E15CF
:1010D0001F0584F482EC92E00E94690398012F5F5F
:1010E0003F4F3093B1022093B002F801EE58FD4F0C
:1010F0008083DECFE016F10679F520916E02309103
:101100006F0280917002909171022817390721F5C2
:10111000CE19DF09D093B302C093B202A70162E7F0
:1011200072E082E392E00E947D09F0926F02E09209
:101130006E021092710210927002CD33D10514F03C
:10114000CCE3D0E0D093AF02C093AE021092B102D4
:101150001092B0020E94AA048091700290917102D4
:1011600020916E0230916F0282179307ECF49C017C
:101170002F5F3F4F30937102209370028E5C9D4F22
:10118000FC018081C82FD0E0CE010E94C4048111EF
:101190007ACECE01D7FF02C090E080E02091C1025C
:1011A000281B2093C10272CF8091B2029091B302AA
:1011B000181619060CF04EC00E947C0268197909B5
:1011C0008A099B09693E73408105910508F468CF3F
:1011D000CFEFDFEFD9CFC831D10509F41CCE6C2F8A
:1011E00082EC92E00E94C3032FEFE21AF20AECCDE8
:1011F00082EC92E00E9469038831910509F443CEA4
:101200004B9709F0F4CD3FCE80ED97E00E9461044A
:101210008C010E94C404811136CEE80117FF02C080
:10122000D0E0C0E09091C1028C2F819589130FC04E
:1012300063E082EC92E00E94C303C6010197F1F7DC
:10124000CE0199270E94E2020E94BC041CCE86E0D7
:1012500090E067CDC091C102D0E0CE010E94E202D1
:101260000E94BC0481110FCE80ED97E00E946104C2
:101270008C010E94C404811106CEC80117FF02C070
:1012800090E080E0C817D90711F70E94AA04FBCDAF
:10129000E2ECF2E01382128288EE93E0A0E0B0E08C
:1012A00084839583A683B78384E092E091838083CF
:1012B00085EC90E09587848784EC90E0978786871B
:1012C00080EC90E0918B808B81EC90E0938B828B13
:1012D00082EC90E0958B848B86EC90E0978B868BEC
:1012E000118E128E138E148E0895EE0FFF1F881F1D
:1012F0008BBF0790F691E02D1994FB01DC0102C031
:1013000001900D9241505040D8F70895F894FFCFC6
:1013100000000000C3032D035A0310048B0369036C
:101320007D03506F7274666F6C696F2041726475D3
:10133000696E6F2044726976657220002E000D0A76
:021340000000AB
:00000001FF
