:100000000C9403010C942D010C942D010C942D01E2
:100010000C942D010C942D010C942D010C942D01A8
:100020000C942D010C942D010C942D010C942D0198
:100030000C942D010C942D010C942D010C942D0188
:100040000C942D010C942D010C942D010C942D0178
:100050000C942D010C942D010C942D010C94BB04D7
:100060000C942D010C942F050C9405050C942D0176
:100070000C942D010C942D010C942D010C942D0148
:100080000C942D010C942D010C942D010C942D0138
:100090000C942D010C942D010C942D010C942D0128
:1000A0000C942D010C942D010C942D010C942D0118
:1000B0000C942D010C942D010C942D010C942D0108
:1000C0000C942D010C942D010C942D010C942D01F8
:1000D0000C942D010C942D010C942D010C942D01E8
:1000E0000C942D0100002100240027002A002D007F
:1000F0003000330001010000040107010A01000083
:100100002200250028002B002E00310034000201BF
:100110000000050108010B0100002000230026005B
:1001200029002C002F00320000010000030106010D
:10013000090105050505070508080808020202026D
:100140000A0A080804040404010101010101010173
:100150000303030303030303040707070C0C0C0C3E
:100160000C0C0C0C02020202060606060606060627
:100170000B0B0B0B0B0B0B0B0102102020080810B4
:100180002040102040800201020108040201010207
:1001900004081020408080402010080402018004E0
:1001A000020180402010080402010804020101023B
:1001B0000408102040800102040810204080000044
:1001C0000A0B02090C0D0E080703040100000000D1
:1001D000000000000000000000000000000000001F
:1001E00000000000000000000000121110000000DC
:1001F00000000000000000000000000000000000FF
:1002000000000000090911241FBECFEFD1E2DEBFBC
:10021000CDBF12E0A0E0B2E0E4E9F2E100E00BBF04
:1002200002C007900D92A233B107D9F723E0A2E3F1
:10023000B2E001C01D92AF35B207E1F711E0C3E0B3
:10024000D1E004C02197FE010E943609C230D107D7
:10025000C9F70E9465050C9448090C940000815070
:10026000823108F058C0E82FF0E0E75CFE4F0C94B4
:10027000360959015D014B01510155018B016001A6
:1002800066016A017001740178017E0182018B01AF
:1002900086018C019001809180008F77809380008F
:1002A0000895809180008F7DF9CF80918000877FB5
:1002B000F5CF84B58F7784BD089584B58F7DFBCF4E
:1002C0008091B0008F778093B00008958091B00046
:1002D0008F7DF9CF809190008F7780939000089563
:1002E000809190008F7DF9CF80919000877FF5CF2E
:1002F0008091A0008F778093A00008958091A00046
:100300008F7DF9CF8091A000877FF5CF809120016C
:100310008F77809320010895809120018F7DF9CF00
:1003200080912001877FF5CFCF93DF93282F30E096
:10033000F901E254FE4F8491F901E858FE4FD4913F
:10034000F901EE5CFE4FC491CC23A1F081110E9413
:100350002F01EC2FF0E0EE0FFF1FE85EFE4FA5919E
:10036000B491EC91ED2381E090E009F480E0DF911D
:10037000CF91089580E090E0FACF1F93CF93DF9361
:10038000282F30E0F901E254FE4F8491F901E8583A
:10039000FE4FD491F901EE5CFE4FC491CC23A9F03D
:1003A000162F81110E942F01EC2FF0E0EE0FFF1F9E
:1003B000E250FF4FA591B4918FB7F894EC911111D1
:1003C00008C0D095DE23DC938FBFDF91CF911F91C2
:1003D0000895DE2BF8CFCF93DF9390E0FC01E8582F
:1003E000FE4F24918E5C9E4FFC0184918823D1F0B6
:1003F00090E0880F991FFC01EC51FF4FA591B4913B
:10040000FC01E250FF4FC591D49161110EC09FB71E
:10041000F8948C91E22FE0958E238C932881E2232F
:10042000E8839FBFDF91CF9108958FB7F894EC9147
:10043000E22BEC938FBFF6CF3FB7F8948091BD02CB
:100440009091BE02A091BF02B091C00226B5A89BB8
:1004500005C02F3F19F00196A11DB11D3FBFBA2F56
:10046000A92F982F8827BC01CD01620F711D811D16
:10047000911D42E0660F771F881F991F4A95D1F79B
:1004800008952FB7F8946091B9027091BA028091E3
:10049000BB029091BC022FBF08958F929F92AF92A2
:1004A000BF92CF92DF92EF92FF926C010E944102C5
:1004B0004B015C010D2C000CEE08FF0887E00E9448
:1004C0009401892BA9F00E944102681979098A09CF
:1004D0009B09C616D706E806F90680F780E0FF906C
:1004E000EF90DF90CF90BF90AF909F908F90089546
:1004F00081E0F5CF8F929F92AF92BF92CF92DF9221
:10050000EF92FF926C010E9441024B015C010D2CA5
:10051000000CEE08FF0887E00E949401892BA9F4E3
:100520000E944102681979098A099B09C616D706F3
:10053000E806F90680F780E0FF90EF90DF90CF901B
:10054000BF90AF909F908F90089581E0F5CFEF928C
:10055000FF920F931F93CF93DF93EC0183EC90E016
:100560000197F1F704E010E061E0C7FF60E082E08E
:100570000E94BD0160E083E00E94BD017E01EE0C9F
:10058000FF1C88EE93E00E944D028823D1F061E0C9
:10059000E7FE60E082E00E94BD0161E083E00E942E
:1005A000BD01CC0FDD1FCC0FDD1F88EE93E00E9454
:1005B0007A02882331F001501109B1F690E080E011
:1005C0000AC060E083E00E94BD0160E082E00E941A
:1005D000BD0181E090E0DF91CF911F910F91FF90DD
:1005E000EF900895AF92BF92CF92DF92EF92FF9279
:1005F0000F931F93CF93DF936C017B018B01040F4B
:10060000151FEB015E01AE18BF08C017D10759F0E6
:100610006991D601ED91FC910190F081E02DC60128
:100620000995892B79F7C501DF91CF911F910F9122
:10063000FF90EF90DF90CF90BF90AF900895FC01B6
:10064000538D448D252F30E0842F90E0821B930B37
:10065000541710F0CF96089501970895FC01918DDD
:10066000828D981761F0A28DAE0FBF2FB11D5D96E0
:100670008C91928D9F5F9F73928F90E008958FEF82
:100680009FEF0895FC01918D828D981731F0828D36
:10069000E80FF11D858D90E008958FEF9FEF08958D
:1006A000FC01918D228D892F90E0805C9F4F821BF1
:1006B00091098F739927089582EC92E00E9450036C
:1006C00021E0892B09F420E0822F0895FC01A48DFC
:1006D000A80FB92FB11DA35ABF4F2C91848D90E064
:1006E00001968F739927848FA689B7892C93A08947
:1006F000B1898C91837080648C93938D848D9813D1
:1007000006C00288F389E02D80818F7D8083089563
:10071000EF92FF920F931F93CF93DF93EC0181E051
:10072000888F9B8D8C8D98131AC0E889F9898081F8
:1007300085FF15C09FB7F894EE89FF896083E8892B
:10074000F98980818370806480839FBF81E090E01D
:10075000DF91CF911F910F91FF90EF900895F62EAA
:100760000B8D10E00F5F1F4F0F731127E02E8C8D44
:100770008E110CC00FB607FCFACFE889F989808189
:1007800085FFF5CFCE010E946603F1CFEB8DEC0F14
:10079000FD2FF11DE35AFF4FF0829FB7F8940B8FA6
:1007A000EA89FB8980818062CFCFCF93DF93EC0110
:1007B000888D8823B9F0AA89BB89E889F9898C9149
:1007C00085FD03C0808186FD0DC00FB607FCF7CF05
:1007D0008C9185FFF2CF808185FFEDCFCE010E9405
:1007E0006603E9CFDF91CF91089580E090E0892BF7
:1007F00029F00E945C0381110E94000080E090E0DB
:10080000892B49F080E090E0892B29F00E940000BC
:1008100081110E94000080E090E0892B49F080E087
:1008200090E0892B29F00E94000081110E940000B5
:1008300080E090E0892B49F080E090E0892B29F05E
:100840000E94000081110C9400000895EF92FF9225
:100850000F931F93CF93DF937C0104E010E0D0E06F
:10086000C0E0C7010E944D02882331F1CC0FDD1F8B
:1008700088E00E949401C82BD92B60E083E00E949D
:10088000BD01C7010E947A028823B1F0CC0FDD1FA1
:1008900088E00E949401C82BD92B61E083E00E947C
:1008A000BD0101501109E9F6CE01DF91CF911F91F1
:1008B0000F91FF90EF90089560E083E00E94BD01EA
:1008C0008FEF9FEFF2CF88EE93E00E94260497FD12
:1008D00005C02091C102280F2093C102089566E04F
:1008E00082EC92E00C948803CF93C82F65E182ECF0
:1008F00092E00E9488036C2F82EC92E0CF910C94DE
:100900008803009721F00E94740481E0089580E03C
:10091000089597FF07C09195819591090E947404ED
:1009200081E0089580E00895FC0101900020E9F73E
:100930003197AF01481B590BBC0182EC92E00C943B
:10094000F202CF93DF93CDB7DEB7A1970FB6F8943D
:10095000DEBF0FBECDBF19A281E388A3CE01809672
:100960000E949404A1960FB6F894DEBF0FBECDBFCF
:10097000DF91CF9108951F920F920FB60F9211241D
:100980002F933F938F939F93AF93BF938091B9021F
:100990009091BA02A091BB02B091BC023091B80212
:1009A00023E0230F2D3758F50196A11DB11D20938B
:1009B000B8028093B9029093BA02A093BB02B0939D
:1009C000BC028091BD029091BE02A091BF02B09185
:1009D000C0020196A11DB11D8093BD029093BE027D
:1009E000A093BF02B093C002BF91AF919F918F912E
:1009F0003F912F910F900FBE0F901F90189526E8F2
:100A0000230F0296A11DB11DD2CF1F920F920FB6D8
:100A10000F9211240BB60F922F933F934F935F9336
:100A20006F937F938F939F93AF93BF93EF93FF93B6
:100A300082EC92E00E946603FF91EF91BF91AF912B
:100A40009F918F917F916F915F914F913F912F91E6
:100A50000F900BBE0F900FBE0F901F9018951F9216
:100A60000F920FB60F9211240BB60F922F938F9304
:100A70009F93EF93FF93E091D202F091D302808194
:100A8000E091D802F091D90282FD1DC09081809141
:100A9000DB028F5F8F732091DC02821741F0E091BF
:100AA000DB02F0E0EE53FD4F958F8093DB02FF9168
:100AB000EF919F918F912F910F900BBE0F900FBED2
:100AC0000F901F9018958081F2CF789484B5826042
:100AD00084BD84B5816084BD85B5826085BD85B5E2
:100AE000816085BD80916E00816080936E00109260
:100AF00081008091810082608093810080918100DB
:100B0000816080938100809180008160809380006B
:100B10008091B10084608093B1008091B0008160C9
:100B20008093B000809191008260809391008091C9
:100B3000910081608093910080919000816080930A
:100B400090008091A10082608093A1008091A1001B
:100B500081608093A1008091A00081608093A000BB
:100B60008091210182608093210180912101816027
:100B700080932101809120018160809320018091E8
:100B80007A00846080937A0080917A0082608093FA
:100B90007A0080917A00816080937A0080917A0057
:100BA000806880937A001092C100E091D202F091A7
:100BB000D30282E08083E091CE02F091CF021082D6
:100BC000E091D002F091D10280E180831092DA02AC
:100BD000E091D602F091D70286E08083E091D402C2
:100BE000F091D502808180618083E091D402F09100
:100BF000D502808188608083E091D402F091D50293
:100C0000808180688083E091D402F091D502808158
:100C10008F7D808360E087E00E94EB0160E088E0E8
:100C20000E94EB0161E083E00E94EB0161E082E061
:100C30000E94EB0161E08DE00E94EB014BE8C42EC5
:100C4000DD24D39482EC92E00E945003892B09F4B6
:100C5000DBC082EC92E00E942E0366E186319105B2
:100C600009F4CEC0019709F0CFC00E9441024B01A8
:100C70005C0182EC92E00E945003892B71F40E9487
:100C80004102681979098A099B09693E7340810507
:100C9000910578F38FEF9FEF06C082EC92E00E94FF
:100CA0002E0397FF06C09195819591090E947404C7
:100CB000ABC08330910509F4D3C054F48130910561
:100CC00009F474C0029709F4A1C283E090E0EECF6A
:100CD0008430910509F4F3C00597B9F71092C10269
:100CE0008AE590E00E94A7020E94810481118CC0D5
:100CF00088E893E10E942604EC010E948904811196
:100D000083C0C53AD10509F70E946304D82FC92FC3
:100D10000E948904811178C00E9463048C010E94A2
:100D20008904811171C0C80117FF02C090E080E002
:100D3000982F88270D2F1C2F17FF02C010E000E00E
:100D4000082B192B62E082EC92E00E948803F12CC0
:100D5000E12CE016F1060CF018C20E946304B82ED4
:100D6000A92E0E94890481114FC082EC92E00E945A
:100D70005003892B09F0FDC1CB2DDA2DD7FF02C01E
:100D8000D0E0C0E0C731D1050CF0E6C1C531D105D6
:100D90003CF4C330D10521F0C031D10509F0E0C1E8
:100DA00060E182EC92E00E948803DAC161E082ECAB
:100DB00092E00E94880361E082EC92E00E94880346
:100DC00061E082EC92E00E9488036CE382EC92E0A6
:100DD0000E94880362E082EC92E00E94880382E134
:100DE00092E00E9494040E94A1048CE292E00E948E
:100DF00094040E94A1048EE292E00E94940463E0B5
:100E000082EC92E00E9488030E9441020091B402A9
:100E10001091B5022091B6023091B7024B015C01EE
:100E2000801A910AA20AB30A95018401083E134070
:100E30002105310590F06093B4027093B502809360
:100E4000B6029093B7028DE00E94940161E0892B75
:100E500009F060E08DE00E94BD010E94F503F2CE32
:100E600088E893E10E947A0288E893E10E942604D0
:100E7000EC010E9489048111C7CFCA35D10509F45C
:100E8000C5C188EE93E00E944D02882389F060E09E
:100E900083E00E94BD0188EE93E00E947A028823DD
:100EA00039F061E083E00E94BD0188EE93E0DECF7F
:100EB00060E083E00E94BD0181E090E0F7CE0E94F7
:100EC00041024B015C0182EC92E00E9450030297C8
:100ED00074F40E944102681979098A099B09693EE4
:100EE00073408105910578F3CFEFDFEF0CC082EC02
:100EF00092E00E942E03EC0182EC92E00E942E030D
:100F0000612CC629D82BCE010E94890481117CCF87
:100F10008E01D7FF02C010E000E010926F02109225
:100F20006E0210927102109270029CE380E0CD3349
:100F3000D10514F4902F812F9093AE028093AF02CD
:100F40001092B1021092B0021093B3020093B20259
:100F50001092C1021C161D060CF056CF88EE93E0CD
:100F60000E942604EC010E94890481114DCFCA35EC
:100F7000D10559F0C936D10589F3C53AD10571F3C8
:100F8000C639D10509F0A1CEE9CF0E946F040E94B5
:100F90001C021B012C0132E3832E912CA12CB12CBD
:100FA0000E941C026219730984099509683E734006
:100FB00081059105A8F381E0881A9108A108B1087C
:100FC000E8EE2E0EE3E03E1E411C511C81149104FC
:100FD000A104B10429F785EA90E00E94A7020E94CB
:100FE0008104811111CFD12FDD0FDD0BC02FC195F1
:100FF000C093C102C80199270E94A7020E948104E0
:10100000811102CFC11BC093C102812F9D2F0E946D
:10101000A7020E9481048111F7CE0E9441024B0178
:101020005C01C091B202D091B3021C161D060CF0F7
:1010300054C082EC92E00E9450030091B0021091E3
:10104000B102E090AE02F090AF02181619069CF4BF
:101050000E151F0584F482EC92E00E942E03980185
:101060002F5F3F4F3093B1022093B002F801EE584A
:10107000FD4F8083DECFE016F10679F520916E02F8
:1010800030916F0280917002909171022817390798
:1010900021F5CE19DF09D093B302C093B202A701A4
:1010A00062E772E082E392E00E943F09F0926F02F1
:1010B000E0926E021092710210927002CD33D1054F
:1010C00014F0CCE3D0E0D093AF02C093AE02109204
:1010D000B1021092B0020E946F0480917002909150
:1010E000710220916E0230916F0282179307ECF427
:1010F0009C012F5F3F4F30937102209370028E5CF2
:101100009D4FFC018081C82FD0E0CE010E94890450
:1011100081117ACECE01D7FF02C090E080E020910D
:10112000C102281B2093C10272CF8091B20290911C
:10113000B302181619060CF04EC00E94410268193D
:1011400079098A099B09693E73408105910508F474
:1011500068CFCFEFDFEFD9CFC831D10509F420CE6A
:101160006C2F82EC92E00E9488032FEFE21AF20AC1
:10117000F0CD82EC92E00E942E038831910509F4B3
:1011800043CE4B9709F0F8CD3FCE88EE93E00E9416
:1011900026048C010E948904811136CEE80117FFD4
:1011A00002C0D0E0C0E09091C1028C2F81958913DC
:1011B0000FC063E082EC92E00E948803C6010197B1
:1011C000F1F7CE0199270E94A7020E9481041CCE4C
:1011D00086E090E06BCDC091C102D0E0CE010E94CC
:1011E000A7020E94810481110FCE88EE93E00E9435
:1011F00026048C010E948904811106CEC80117FFC4
:1012000002C090E080E0C817D90711F70E946F0470
:10121000FBCDE2ECF2E01382128288EE93E0A0E0D4
:10122000B0E084839583A683B78384E092E09183C2
:10123000808385EC90E09587848784EC90E09787A5
:10124000868780EC90E0918B808B81EC90E0938B93
:10125000828B82EC90E0958B848B86EC90E0978B70
:10126000868B118E128E138E148E0895EE0FFF1F33
:101270000024001C0BBE0790F691E02D0994FB01A1
:10128000DC0102C001900D9241505040D8F7089502
:04129000F894FFCF00
:10129400000000008803F2021F03D50350032E034D
:1012A4004203506F7274666F6C696F20416E64758F
:1012B400696E6F2044726976657220002E000D0AF3
:0212C400000028
:00000001FF
