:100000000C94D4000C94FC000C94FC000C94FC00A8
:100010000C94FC000C94FC000C94FC000C94FC0070
:100020000C94FC000C94FC000C94D3050C94420638
:100030000C94FC000C94FC000C94FC000C94FC0050
:100040000C94FC000C94FC000C94FC000C94FC0040
:100050000C94FC000C94FC000C94FC000C9489059E
:100060000C94FC000C94FC000C94FC000C94FC0020
:100070000C94FC000C94FC000C94FC000C94FC0010
:100080000C94FC000C94FC000C94FC000C94FC0000
:100090000C94FC000C94FC000C94FC000C94FC00F0
:1000A0000C94FC000C94FC000C94FC00080B000267
:1000B0000202000009040000010202000005240001
:1000C0001001052401010104240206052406000193
:1000D0000705810310004009040100020A00000026
:1000E00007050202400000070583024000000403E8
:1000F000090412010002EF02014041233780000190
:100100000102030141726475696E6F204C4C43001B
:1001100041726475696E6F204D6963726F000000F3
:100120000000240027002A002D00300000000000FD
:10013000250028002B002E003100000000002300C5
:10014000260029002C002F000404040404030405E5
:100150000202020204030202020206060606060664
:10016000040402020204040408020110408040104A
:1001700020408040800802040180402010020110CD
:100180008010204040200000000200090F00000302
:100190000401000C0000000000000000000000004E
:1001A000000000000000050C11241FBECFEFDAE0B4
:1001B000DEBFCDBF11E0A0E0B1E0E6E5F8E102C0AE
:1001C00005900D92A434B107D9F722E0A4E4B1E080
:1001D00001C01D92AA33B207E1F710E0C4EDD0E0F0
:1001E00004C02197FE010E941A0CC33DD107C9F734
:1001F0000E9474080C94290C0C940000FC0180915E
:10020000E801882311F13FB7F89482E08093E90078
:100210002091F200822F90E01816190614F481E064
:1002200090E0882339F0289A44E64093E701409112
:10023000F1004083222339F02091F200211103C004
:100240002BE62093E8003FBF08958FEF9FEF0895BE
:100250002FB7F89483E08093E9009091E800892F0C
:10026000807295FF04C09091F20080E4891B2FBF3B
:1002700008958091DF0181110DC082E08093DB0140
:1002800084E08093DC011092DE011092DD0181E0B8
:100290008093DF018BED91E0089581508F3008F05D
:1002A00047C0E82FF0E0E95AFE4F0C941A0C740195
:1002B000780166016C0170019801980198017B0139
:1002C0008101850189018F0198019301809180004E
:1002D0008F77809380000895809180008F7DF9CF83
:1002E00080918000877FF5CF84B58F7784BD089596
:1002F00084B58F7DFBCF809190008F7780939000A5
:100300000895809190008F7DF9CF80919000877F34
:10031000F5CF8091C0008F778093C00008958091C1
:10032000C0008F7DF9CF8091C200877F8093C2008B
:100330000895CF93DF93282F30E0F901EA57FE4F5D
:100340008491F901E959FE4FD491F901E85BFE4F20
:10035000C491CC23A1F081110E944D01EC2FF0E05B
:10036000EE0FFF1FE65CFE4FA591B491EC91ED23DB
:1003700081E090E009F480E0DF91CF91089580E082
:1003800090E0FACF1F93CF93DF93282F30E0F9014D
:10039000EA57FE4F8491F901E959FE4FD491F901D2
:1003A000E85BFE4FC491CC23A9F0162F81110E9467
:1003B0004D01EC2FF0E0EE0FFF1FE45DFE4FA59125
:1003C000B4918FB7F894EC91111108C0D095DE2349
:1003D000DC938FBFDF91CF911F910895DE2BF8CF73
:1003E000CF93DF9390E0FC01E959FE4F2491885BA5
:1003F0009E4FFC0184918823D1F090E0880F991FD3
:10040000FC01E25EFE4FA591B491FC01E45DFE4F5C
:10041000C591D49161110EC09FB7F8948C91E22FD1
:10042000E0958E238C932881E223E8839FBFDF91A0
:10043000CF9108958FB7F894EC91E22BEC938FBF96
:10044000F6CF3FB7F8948091D7019091D801A09151
:10045000D901B091DA0126B5A89B05C02F3F19F04C
:100460000196A11DB11D3FBFBA2FA92F982F882734
:10047000BC01CD01620F711D811D911D42E0660F0F
:10048000771F881F991F4A95D1F708958F929F92E1
:10049000AF92BF92CF92DF92EF92FF924B015C013D
:1004A0000E9421026B017C010E9421026C197D09CE
:1004B0008E099F09683E734081059105A8F321E0EC
:1004C000821A9108A108B10888EEC80E83E0D81EF0
:1004D000E11CF11C81149104A104B10429F7FF90DF
:1004E000EF90DF90CF90BF90AF909F908F90089546
:1004F0002FB7F8946091D3017091D4018091D50108
:100500009091D6012FBF08958F929F92AF92BF9284
:10051000CF92DF92EF92FF926C010E9478024B0122
:100520005C010D2C000CEE08FF0887E00E94990189
:10053000892BA9F00E947802681979098A099B0918
:10054000C616D706E806F90680F780E0FF90EF9020
:10055000DF90CF90BF90AF909F908F90089581E0F3
:10056000F5CF8F929F92AF92BF92CF92DF92EF9290
:10057000FF926C010E9478024B015C010D2C000C73
:10058000EE08FF0887E00E949901892BA9F40E94D8
:100590007802681979098A099B09C616D706E80600
:1005A000F90680F780E0FF90EF90DF90CF90BF904A
:1005B000AF909F908F90089581E0F5CFEF92FF92DA
:1005C0000F931F93CF93DF93EC0183EC90E001979F
:1005D000F1F704E010E061E0C7FF60E082E00E9414
:1005E000C20160E083E00E94C2017E01EE0CFF1CAC
:1005F00088EE93E00E9484028823D1F061E0E7FE58
:1006000060E082E00E94C20161E083E00E94C201DA
:10061000CC0FDD1FCC0FDD1F88EE93E00E94B102EE
:10062000882331F001501109B1F690E080E00AC052
:1006300060E083E00E94C20160E082E00E94C201AB
:1006400081E090E0DF91CF911F910F91FF90EF90AB
:100650000895409146015091470120914401309105
:10066000450142175307B4F49091E8009570E1F307
:100670009091E80092FD19C08093F10080914601AD
:100680009091470101968F739927892B19F48EEF6A
:100690008093E800809146019091470101969093E4
:1006A00047018093460181E0089580E00895EF922C
:1006B000FF920F931F93CF93DF93F82E192FE62EFF
:1006C000042F81E0860F880F0E94290383E00E9497
:1006D0002903CF2DD12FEC0EFD2EF11CCE15DF05F9
:1006E000B9F007FF13C0FE0184910E942903182F5F
:1006F00080E00E942903812321968111EFCFDF91B1
:10070000CF911F910F91FF90EF9008958881EDCFC9
:1007100081E0F5CFDF92EF92FF920F931F93CF937B
:10072000DF93D82E8A01EB017B01E40EF51ECE1576
:10073000DF0559F0D7FE12C0FE0184910E94290303
:1007400021968111F4CF0FEF1FEFC801DF91CF91F8
:100750001F910F91FF90EF90DF9008958881EECF69
:100760000F931F93CF93DF931F92CDB7DEB782E035
:10077000898342E450E06CEA70E080E80E948A03DA
:100780000E943901DC0112960D911C910115110591
:1007900089F0D801ED91FC910280F381E02DBE013A
:1007A0006F5F7F4FC801099597FD04C0F801008570
:1007B0001185ECCF89810F90DF91CF911F910F911F
:1007C0000895615030F02091F100FC0120830196E2
:1007D000F8CF289A84E68093E70108958F929F923C
:1007E000AF92BF92CF92DF92EF92FF920F931F933F
:1007F000CF93DF936C017B018A0180910B018823E9
:1008000009F45CC08091E801882309F457C0809105
:100810004A0180FF05C08091E00082608093E00083
:10082000E801B12C8AEFA82E93E0892E2AE3922EBC
:10083000209711F4BB20D9F10E94280181110AC030
:10084000AA94AA20D9F161E070E080E090E00E94D3
:100850004602EECF8C171D0611F00CF08C2F9FB7BF
:10086000F8948092E9002091E80025FD02C09FBF26
:10087000DFCF282F30E0C21BD30BF701815020F0CF
:1008800041914093F100FACFE20EF31EBB2021F01C
:100890009092E800B12CEBCF8091E80085FDE7CF86
:1008A0009092E800BB24B394209709F3F3CF5D9AAC
:1008B00084E680934901101611063CF081E090E037
:1008C000F6019383828310E000E0C801DF91CF91AD
:1008D0001F910F91FF90EF90DF90CF90BF90AF905E
:1008E0009F908F900895CF93DF931F92CDB7DEB77F
:1008F0006983DC01ED91FC910280F381E02D41E000
:1009000050E0BE016F5F7F4F09950F90DF91CF914F
:10091000089583E08093E9008091F200882319F024
:100920008AE38093E80008950E94280190E00895EA
:10093000CF93DF931F92CDB7DEB7FC0184859585F9
:1009400097FD08C02FEF3FEF358724870F90DF9189
:10095000CF910895CE0101960E94FE00019719F4EF
:10096000898190E0F3CF8FEF9FEFF0CF0F931F932C
:10097000CF93DF931F92CDB7DEB78C01FC01848546
:10098000958597FF0BC0CE0101960E94FE0001974E
:1009900071F4898190E0F80195878487F801848556
:1009A00095850F90DF91CF911F910F9108958FEF53
:1009B0009FEFF1CFFC018485958597FD0BC09FB714
:1009C000F89482E08093E9008091F2009FBF90E06C
:1009D000019608959FB7F89482E08093E900809192
:1009E000F2009FBF90E00895EF92FF920F931F9344
:1009F000CF93DF937C0104E010E0D0E0C0E0C701BA
:100A00000E948402882331F1CC0FDD1F88E00E9410
:100A10009901C82BD92B60E083E00E94C201C70175
:100A20000E94B1028823B1F0CC0FDD1F88E00E9444
:100A30009901C82BD92B61E083E00E94C2010150CB
:100A40001109E9F6CE01DF91CF911F910F91FF902F
:100A5000EF90089560E083E00E94C2018FEF9FEF66
:100A6000F2CF88EE93E00E94F40497FD05C0209138
:100A7000E901280F2093E901089566E08AEE91E0EC
:100A80000C947304CF93C82F65E18AEE91E00E9425
:100A900073046C2F8AEE91E0CF910C94730400974D
:100AA00021F00E94420581E0089580E0089597FFBB
:100AB00007C09195819591090E94420581E00895B2
:100AC00080E00895FC0101900020E9F73197AF0123
:100AD000481B590BBC018AEE91E00C94EE03CF93B6
:100AE000DF93CDB7DEB7A1970FB6F894DEBF0FBE88
:100AF000CDBF19A281E388A3CE0180960E94620532
:100B0000A1960FB6F894DEBF0FBECDBFDF91CF9197
:100B100008951F920F920FB60F9211242F933F93B7
:100B20008F939F93AF93BF938091D3019091D40102
:100B3000A091D501B091D6013091D20123E0230FCD
:100B40002D3758F50196A11DB11D2093D201809338
:100B5000D3019093D401A093D501B093D601809195
:100B6000D7019091D801A091D901B091DA010196F5
:100B7000A11DB11D8093D7019093D801A093D901F5
:100B8000B093DA01BF91AF919F918F913F912F91D7
:100B90000F900FBE0F901F90189526E8230F029616
:100BA000A11DB11DD2CF1F920F920FB60F9211242B
:100BB0008F939F938091E1009091E100937F9093B8
:100BC000E10083FF0FC01092E90091E09093EB00E9
:100BD0001092EC0092E39093ED001092E80198E0FF
:100BE0009093F00082FF22C093E09093E9009091EF
:100BF000F200992319F09AE39093E800909149014B
:100C0000992341F09091490191509093490191119C
:100C100001C05D989091E701992341F09091E7011F
:100C200091509093E701911101C0289884FF18C05A
:100C30008091E2008E7E81608093E2008091E100ED
:100C40008F7E8093E10080914A018E7E8061809347
:100C50004A019F918F910F900FBE0F901F90189592
:100C600080FFF7CF8091E2008E7E80618093E2006A
:100C70008091E1008E7E8093E10080914A018E7E1A
:100C80008160E5CF1F920F920FB60F921124CF9281
:100C9000DF92EF92FF920F931F932F933F934F9307
:100CA0005F936F937F938F939F93AF93BF93EF93D4
:100CB000FF93CF93DF93CDB7DEB76C97DEBFCDBF89
:100CC0001092E9008091E80083FF25C068E0CE0122
:100CD00045960E94E10382EF8093E8008D8987FFAB
:100CE00039C09091E80090FFFCCF982F907609F0E2
:100CF00034C19E894F89588D2F89F88C911131C04C
:100D0000803861F580914B018093F1001092F100E1
:100D10008EEF8093E8006C960FB6F894DEBF0FBE9E
:100D2000CDBFDF91CF91FF91EF91BF91AF919F9197
:100D30008F917F916F915F914F913F912F911F9173
:100D40000F91FF90EF90DF90CF900F900FBE0F901C
:100D50001F9018959EEF9093E800C7CF1092F10076
:100D6000D5CF913059F48111D3CF4130510581F65F
:100D700080914B018D7F80934B01CACF933049F412
:100D80008111C6CF4130510519F680914B01826027
:100D9000F2CF953041F48091E80080FFFCCF2068CD
:100DA0002093E300B5CF963009F0A9C00B8D1C8DC0
:100DB00022E01092E9001092470110924601F212CF
:100DC0002EC010924501109244010E94B0031F8270
:100DD00099E09983FA8291E09E8390EA98879AEF4E
:100DE00099872091460130914701275F3F4F3C830F
:100DF0002B838D831092E9001092470110924601D7
:100E0000109345010093440149E050E0BE016F5F3B
:100E10007F4F80E00E948A030E94B00379CF109335
:100E20004501009344010E943901DC0112960D91A5
:100E30001C910115110509F451C1D801ED91FC91E6
:100E40000480F581E02DBE016B5E7F4FC8010995DE
:100E5000009709F03EC1F80100851185EACFF3E063
:100E6000FF120EC08F89882309F440C0823061F4DC
:100E700040E86DE080E191E00E945703811148CF86
:100E800081E28093EB0047CF813029F440E86BE0AA
:100E900084E091E0F1CF833099F70E943901DC01C1
:100EA0001296ED90FC908E010F5F1F4F6801E114C8
:100EB000F10479F0D701ED91FC910680F781E02DE6
:100EC000B801C7010995080F111DF701E084F184ED
:100ED000EECFD8011C92F60101900020E9F731977E
:100EE000BF016C197D0940E0C601C6CF6EEE70E00F
:100EF000FB01449150E080E80E948A0309CF9730BB
:100F000009F4BECF983021F481E08093F10000CF46
:100F1000993009F0FDCE837009F0B2CFEFE1F1E036
:100F200081E031E096E32191222371F08093E90082
:100F30003093EB00DF0111972C912093EC009093FC
:100F4000ED008F5F873079F78EE78093EA0010928B
:100F5000EA008F898093E801DBCE8B8D9C8D109207
:100F6000E900109247011092460190934501809349
:100F70004401898D811192C08E899D89913A49F4ED
:100F8000813209F07DCF47E050E064E071E080E01D
:100F9000B3CF913209F074CF833269F48F89988D81
:100FA000B0E0A0E08093000190930101A0930201C2
:100FB000B0930301ADCE803269F48091E80082FFE6
:100FC000FCCF67E084E091E00E94E1038BEF809327
:100FD000E8009ECE823209F09BCE8F8980930B0170
:100FE000EEEFFFE7859194918B3F9C4D51F1E0E04E
:100FF000F8E08091040190910501A0910601B09163
:101000000701803B9440A105B105F1F480910B01EB
:1010100080FD1AC0EE3F8AE0F80789F587E797E779
:1010200091838083809160008093480188E19BE0F8
:101030000FB6F894A895809360000FBE909360005F
:1010400067CEEEEFFAE0D5CF808191818737974761
:1010500009F05ECEA8958091600088618093600061
:101060008091480180936000EE3F2AE0F20789F00A
:101070008091FE0A9091FF0A9183808349CE8081FE
:1010800091818737980751F29093FF0A8093FE0A67
:10109000C5CF1092FF0A1092FE0A3ACE0E94390183
:1010A000DC0112960D911C910115110509F4E8CE91
:1010B000D801ED91FC910190F081E02DBE016B5EB5
:1010C0007F4FC8010995811123CEF8010085118554
:1010D000EBCF181619060CF41BCED2CEF1E0FF129E
:1010E000BECE62EF70E004CF789484B5826084BD98
:1010F00084B5816084BD85B5826085BD85B581601C
:1011000085BD80916E00816080936E001092810099
:101110008091810082608093810080918100816054
:101120008093810080918000816080938000809115
:101130009100826080939100809191008160809302
:101140009100809190008160809390008091C10017
:1011500084608093C1008091C10082608093C1004F
:101160008091C10081608093C1008091C300816043
:101170008093C3008091C00082608093C000809102
:10118000C20081608093C20080917A008460809365
:101190007A0080917A00826080937A0080917A0050
:1011A000816080937A0080917A00806880937A00D1
:1011B0001092E80110924B0110924A018091D700E1
:1011C00081608093D70080EA8093D80089B58061E0
:1011D00089BD89B5826089BD09B400FEFDCF61E09B
:1011E00070E080E090E00E9446028091D8008F7C01
:1011F00080618093D8008091E000807F8093E00040
:101200008091E1008E7E8093E1008DE08093E2008A
:10121000559A209A5D9828988FEF9FEF9093F70149
:101220008093F60160E087E00E94F00160E088E0D2
:101230000E94F00161E083E00E94F00161E082E041
:101240000E94F00161E08DE00E94F0019BE8692EB0
:101250007724739420E0C22E20E0D22E8AEE91E013
:101260000E94DA04892B09F4DDC08AEE91E00E9425
:10127000980466E18631910509F4D0C0019709F020
:10128000D1C00E9478024B015C018AEE91E00E947D
:10129000DA04892B71F40E947802681979098A09A5
:1012A0009B09693E73408105910578F38FEF9FEFAD
:1012B00006C08AEE91E00E94980497FF06C09195BF
:1012C000819591090E944205ADC08330910509F4D2
:1012D000D9C054F48130910509F476C0029709F41D
:1012E00091C283E090E0EECF8430910509F4F9C01B
:1012F0000597B9F71092E9018AE590E00E94DE02B5
:101300000E944F0581118EC088E893E10E94F40489
:10131000EC010E945705811185C0C53AD10509F736
:101320000E9431058C010E94570581117BC00E94EB
:1013300031057C010E945705811174C0E701F7FE59
:1013400002C0D0E0C0E0DC2FCC27C80117FF02C0EC
:1013500090E080E0C82BD92B62E08AEE91E00E94F9
:10136000730410E000E00C171D070CF005C20E948A
:101370003105B82EA92E0E945705811153C08AEE5F
:1013800091E00E94DA04892B09F0EAC1EB2CFA2CD7
:10139000F7FE02C0F12CE12C27E1E216F1040CF07B
:1013A000D2C145E1E416F1044CF483E0E816F104FF
:1013B00029F090E1E916F10409F0CAC160E18AEE72
:1013C00091E00E947304C4C161E08AEE91E00E9442
:1013D000730461E08AEE91E00E94730461E08AEE9A
:1013E00091E00E9473046CE38AEE91E00E94730422
:1013F00062E08AEE91E00E94730485E291E00E942F
:1014000062050E946F058FE391E00E9462050E94D1
:101410006F0581E491E00E94620563E08AEE91E04D
:101420000E9473040E9478020091CE011091CF01B6
:101430002091D0013091D1014B015C01801A910AB9
:10144000A20AB30A95018401083E13402105310523
:1014500090F06093CE017093CF018093D001909370
:10146000D1018DE00E94990161E0892B09F060E0D3
:101470008DE00E94C201C114D10409F4EFCE0E9494
:101480000000ECCE88E893E10E94B10288E893E185
:101490000E94F404EC010E9457058111C3CFCA35A4
:1014A000D10509F4AFC188EE93E00E94840288233D
:1014B00089F060E083E00E94C20188EE93E00E9420
:1014C000B102882339F061E083E00E94C20188EE16
:1014D00093E0DECF60E083E00E94C20181E090E013
:1014E000F1CE0E9478024B015C018AEE91E00E94ED
:1014F000DA04029774F40E947802681979098A095B
:101500009B09693E73408105910578F30FEF1FEF4A
:101510000CC08AEE91E00E9498048C018AEE91E062
:101520000E949804412C0429182BC8010E945705D9
:10153000811178CFE80117FF02C0D0E0C0E010921F
:1015400089011092880110928B0110928A019CE30C
:1015500080E00D33110514F49C2F8D2F9093C8015A
:101560008093C9011092CB011092CA01D093CD0192
:10157000C093CC011092E901101611060CF052CF65
:1015800088EE93E00E94F4048C010E9457058111BB
:1015900049CF0A35110559F00936110589F3053A85
:1015A000110571F30639110509F09BCEE9CF0E94B0
:1015B0003D0562E370E080E090E00E94460285EA2B
:1015C00090E00E94DE020E944F0581112BCF1D2F5B
:1015D000110F110B8091E9018C1B8093E901CE0161
:1015E00099270E94DE020E944F0581111BCF809136
:1015F000E9018D1B8093E9018D2F912F0E94DE025E
:101600000E944F0581110ECF0E9478024B015C01B0
:10161000C091CC01D091CD011C161D060CF054C018
:101620008AEE91E00E94DA040091CA011091CB0188
:10163000E090C801F090C901181619069CF40E1527
:101640001F0584F48AEE91E00E94980498012F5FB0
:101650003F4F3093CB012093CA01F801E457FE4F6E
:101660008083DECFE016F10679F520918A01309172
:101670008B0180918801909189012817390721F504
:10168000CE19DF09D093CD01C093CC01A7016CE83E
:1016900071E08CE491E00E94200CF0928901E092CC
:1016A000880110928B0110928A01CD33D10514F07C
:1016B000CCE3D0E0D093C901C093C8011092CB0114
:1016C0001092CA010E943D0580918A0190918B0180
:1016D000209188013091890182179307ECF49C01D5
:1016E0002F5F3F4F30938B0120938A01845B9E4F85
:1016F000FC018081C82FD0E0CE010E9457058111E6
:1017000091CECE01D7FF02C090E080E02091E901A8
:10171000281B2093E90172CF8091CC019091CD01DB
:10172000181619060CF04FC00E9478026819790942
:101730008A099B09693E73408105910508F468CFC9
:10174000CFEFDFEFD9CFE8E1EE16F10409F436CEA2
:101750006E2D8AEE91E00E9473040F5F1F4F03CE3F
:101760008AEE91E00E9498048831910509F45ACEDE
:101770004B9709F00BCE56CE88EE93E00E94F4040E
:10178000D82FC92F0E94570581114CCE8D2F9C2F29
:1017900097FD80E081959091E901891311C063E084
:1017A0008AEE91E00E947304C3010197F1F78091E2
:1017B000E901819590E00E94DE020E944F0532CE41
:1017C00086E090E07FCD8091E90190E00E94DE020A
:1017D0000E944F05811126CE88EE93E00E94F4040A
:1017E000D82FC92F0E94570581111CCE2091E901E5
:1017F00030E08D2F9C2F97FF02C090E080E02817EB
:101800003907F1F60E943D050DCEEAEEF1E01382B4
:10181000128288EE93E0A0E0B0E084839583A683F3
:10182000B78380E191E0918380838FEF9FEF95876D
:1018300084870895EE0FFF1F0590F491E02D099421
:10184000FB01DC0102C001900D9241505040D8F7DD
:061850000895F894FFCF9B
:10185600FFFFFFFF00E100000000000000000000A5
:101866007304EE0394048904DA049804B60400C1F0
:101876008081000000506F7274666F6C696F204142
:101886006E6475696E6F2044726976657220002EEB
:04189600000D0A0037
:00000001FF
