:100000000C9462000C948A000C948A000C948A0070
:100010000C948A000C948A000C948A000C948A0038
:100020000C948A000C948A000C948A000C948A0028
:100030000C948A000C948A000C948A000C948A0018
:100040000C94B5030C948A000C9425040C94FF03C3
:100050000C948A000C948A000C948A000C948A00F8
:100060000C948A000C948A000000000024002700F1
:100070002A0000000000250028002B0000000000DE
:1000800023002600290004040404040404040202DA
:100090000202020203030303030301020408102007
:1000A0004080010204081020010204081020000012
:1000B0000008000201000003040700000000000027
:1000C0000000DE0711241FBECFEFD8E0DEBFCDBF9A
:1000D00011E0A0E0B1E0E8E3F0E102C005900D928C
:1000E000A233B107D9F722E0A2E3B1E001C01D922B
:1000F000AF35B207E1F710E0C2E6D0E004C02197C7
:10010000FE010E940B08C136D107C9F70E945704AF
:100110000C941A080C940000833081F028F481308C
:1001200099F08230A9F008958730A9F08830C9F09D
:100130008430B1F4809180008F7D03C08091800075
:100140008F7780938000089584B58F7784BD08955C
:1001500084B58F7DFBCF8091B0008F778093B00006
:1001600008958091B0008F7DF9CFCF93DF93282F32
:1001700030E0F901E255FF4F8491F901E656FF4F57
:10018000D491F901EA57FF4FC491CC23A1F081111A
:100190000E948C00EC2FF0E0EE0FFF1FE458FF4FA1
:1001A000A591B491EC91ED2381E090E009F480E019
:1001B000DF91CF91089580E090E0FACF1F93CF9325
:1001C000DF93282F30E0F901E255FF4F8491F901C8
:1001D000E656FF4FD491F901EA57FF4FC491CC2363
:1001E000A9F0162F81110E948C00EC2FF0E0EE0F89
:1001F000FF1FEE58FF4FA591B4918FB7F894EC9183
:10020000111108C0D095DE23DC938FBFDF91CF9111
:100210001F910895DE2BF8CFCF93DF9390E0FC0180
:10022000E656FF4F24918A579F4FFC018491882303
:10023000D1F090E0880F991FFC01E859FF4FA5917C
:10024000B491FC01EE58FF4FC591D49161110EC0DD
:100250009FB7F8948C91E22FE0958E238C932881A0
:10026000E223E8839FBFDF91CF9108958FB7F89481
:10027000EC91E22BEC938FBFF6CF3FB7F8948091CF
:10028000BD019091BE01A091BF01B091C00126B502
:10029000A89B05C02F3F19F00196A11DB11D3FBFBE
:1002A000BA2FA92F982F8827BC01CD01620F711D8D
:1002B000811D911D42E0660F771F881F991F4A9587
:1002C000D1F708952FB7F8946091B9017091BA01F0
:1002D0008091BB019091BC012FBF08958F929F9296
:1002E000AF92BF92CF92DF92EF92FF926C010E9489
:1002F00062014B015C010D2C000CEE08FF0887E049
:100300000E94B500892BA9F00E9462016819790941
:100310008A099B09C616D706E806F90680F780E029
:10032000FF90EF90DF90CF90BF90AF909F908F9015
:10033000089581E0F5CF8F929F92AF92BF92CF92B6
:10034000DF92EF92FF926C010E9462014B015C010F
:100350000D2C000CEE08FF0887E00E94B500892BE9
:10036000A9F40E946201681979098A099B09C616D5
:10037000D706E806F90680F780E0FF90EF90DF905F
:10038000CF90BF90AF909F908F90089581E0F5CF70
:10039000EF92FF920F931F93CF93DF93EC0183ECC7
:1003A00090E00197F1F704E010E061E0C7FF60E042
:1003B00082E00E94DE0060E083E00E94DE007E01B9
:1003C000EE0CFF1C80ED97E00E946E018823D1F0B7
:1003D00061E0E7FE60E082E00E94DE0061E083E031
:1003E0000E94DE00CC0FDD1FCC0FDD1F80ED97E0FB
:1003F0000E949B01882331F001501109B1F690E071
:1004000080E00AC060E083E00E94DE0060E082E0FD
:100410000E94DE0081E090E0DF91CF911F910F916B
:10042000FF90EF900895AF92BF92CF92DF92EF923C
:10043000FF920F931F93CF93DF936C017B018B018E
:10044000040F151FEB015E01AE18BF08C017D107DE
:1004500059F06991D601ED91FC910190F081E02D68
:10046000C6010995892B79F7C501DF91CF911F91BD
:100470000F91FF90EF90DF90CF90BF90AF900895D5
:10048000FC01538D448D252F30E0842F90E0821B9A
:10049000930B541710F0CF96089501970895FC011F
:1004A000918D828D981761F0A28DAE0FBF2FB11D77
:1004B0005D968C91928D9F5F9F73928F90E00895CF
:1004C0008FEF9FEF0895FC01918D828D981731F089
:1004D000828DE80FF11D858D90E008958FEF9FEFDD
:1004E0000895FC01918D228D892F90E0805C9F4FB3
:1004F000821B91098F739927089582EC91E00E94E5
:10050000710221E0892B09F420E0822F089580E018
:1005100090E0892B29F00E947D0281110C9400004B
:100520000895FC01A48DA80FB92FB11DA35ABF4F88
:100530002C91848D90E001968F739927848FA689E2
:10054000B7892C93A089B1898C91837080648C9336
:10055000938D848D981306C00288F389E02D8081E5
:100560008F7D80830895EF92FF920F931F93CF9317
:10057000DF93EC0181E0888F9B8D8C8D98131AC0DE
:10058000E889F989808185FF15C09FB7F894EE89C5
:10059000FF896083E889F989808183708064808322
:1005A0009FBF81E090E0DF91CF911F910F91FF906D
:1005B000EF900895F62E0B8D10E00F5F1F4F0F7315
:1005C0001127E02E8C8D8E110CC00FB607FCFACFD0
:1005D000E889F989808185FFF5CFCE010E949102DB
:1005E000F1CFEB8DEC0FFD2FF11DE35AFF4FF082A1
:1005F0009FB7F8940B8FEA89FB8980818062CFCF07
:10060000CF93DF93EC01888D8823B9F0AA89BB8949
:10061000E889F9898C9185FD03C0808186FD0DC034
:100620000FB607FCF7CF8C9185FFF2CF808185FF55
:10063000EDCFCE010E949102E9CFDF91CF910895D5
:10064000EF92FF920F931F93CF93DF937C0104E00F
:1006500010E0D0E0C0E0C7010E946E01882331F1B4
:10066000CC0FDD1F88E00E94B500C82BD92B60E0BD
:1006700083E00E94DE00C7010E949B018823B1F045
:10068000CC0FDD1F88E00E94B500C82BD92B61E09C
:1006900083E00E94DE0001501109E9F6CE01DF91EE
:1006A000CF911F910F91FF90EF90089560E083E04C
:1006B0000E94DE008FEF9FEFF2CF80ED97E00E9467
:1006C000200397FD05C02091C101280F2093C1018F
:1006D000089566E082EC91E00C94B302CF93C82FAA
:1006E00065E182EC91E00E94B3026C2F82EC91E014
:1006F000CF910C94B302009721F00E946E0381E029
:10070000089580E0089597FF07C09195819591091C
:100710000E946E0381E0089580E00895FC0101903D
:100720000020E9F73197AF01481B590BBC0182EC5F
:1007300091E00C941302CF93DF93CDB7DEB7A1976E
:100740000FB6F894DEBF0FBECDBF19A2805D88A39F
:10075000CE0180960E948E03A1960FB6F894DEBF5C
:100760000FBECDBFDF91CF9108951F920F920FB6AC
:100770000F9211242F933F938F939F93AF93BF9327
:100780008091B9019091BA01A091BB01B091BC01D7
:100790003091B80123E0230F2D3758F50196A11DA4
:1007A000B11D2093B8018093B9019093BA01A09331
:1007B000BB01B093BC018091BD019091BE01A0919D
:1007C000BF01B091C0010196A11DB11D8093BD0173
:1007D0009093BE01A093BF01B093C001BF91AF91B0
:1007E0009F918F913F912F910F900FBE0F901F906F
:1007F000189526E8230F0296A11DB11DD2CF1F9296
:100800000F920FB60F9211242F933F934F935F9344
:100810006F937F938F939F93AF93BF93EF93FF93C8
:1008200082EC91E00E949102FF91EF91BF91AF9114
:100830009F918F917F916F915F914F913F912F91F8
:100840000F900FBE0F901F9018951F920F920FB62A
:100850000F9211242F938F939F93EF93FF93E09127
:10086000D201F091D3018081E091D801F091D901BA
:1008700082FD1BC090818091DB018F5F8F7320917F
:10088000DC01821741F0E091DB01F0E0EE53FE4F16
:10089000958F8093DB01FF91EF919F918F912F9125
:1008A0000F900FBE0F901F9018958081F4CF789411
:1008B00084B5826084BD84B5816084BD85B5826065
:1008C00085BD85B5816085BD80916E008160809316
:1008D0006E0010928100809181008260809381007F
:1008E000809181008160809381008091800081608F
:1008F000809380008091B10084608093B1008091EA
:10090000B00081608093B00080917A008460809311
:100910007A0080917A00826080937A0080917A00D8
:10092000816080937A0080917A00806880937A0059
:100930001092C100E091D201F091D30182E0808356
:10094000E091CE01F091CF011082E091D001F091C1
:10095000D10180E180831092DA01E091D601F0911B
:10096000D70186E08083E091D401F091D5018081A8
:1009700080618083E091D401F091D501808188600D
:100980008083E091D401F091D501808180688083DB
:10099000E091D401F091D50180818F7D808360E06A
:1009A00087E00E940C0160E088E00E940C0161E099
:1009B00083E00E940C0161E082E00E940C0161E092
:1009C0008DE00E940C012BE8622E7724739482EC58
:1009D00091E00E947102892B09F4E1C082EC91E060
:1009E0000E944F0266E18631910509F4D4C0019757
:1009F00009F0D5C00E9462014B015C0182EC91E0DC
:100A00000E947102892B71F40E94620168197909B0
:100A10008A099B09613D77408105910578F38FEF45
:100A20009FEF06C082EC91E00E944F0297FF06C044
:100A30009195819591090E946E03B1C08330910513
:100A400009F4E3C054F48130910509F476C00297AB
:100A500009F4B1C283E090E0EECF8430910509F44F
:100A600003C10597B9F71092C1018AE590E00E9491
:100A7000C8010E947B03811192C088E893E10E9423
:100A80002003EC010E948303811189C0C53AD1057E
:100A900009F70E945D038C010E94830381117FC0CE
:100AA0000E945D037C010E948303811178C0E701ED
:100AB000F7FE02C0D0E0C0E0DC2FCC27C80117FF52
:100AC00002C090E080E0C82BD92B62E082EC91E07C
:100AD0000E94B30210E000E00C171D070CF02AC2C0
:100AE0000E945D03B82EA92E0E948303811157C076
:100AF00082EC91E00E947102892B09F00FC2EB2C6D
:100B0000FA2CF7FE02C0F12CE12C27E1E216F104E9
:100B10000CF0F7C145E1E416F1044CF483E0E8166B
:100B2000F10429F090E1E916F10409F0EFC160E168
:100B300082EC91E00E94B302E9C161E082EC91E0B5
:100B40000E94B30261E082EC91E00E94B30262E095
:100B500082EC91E00E94B3026CE382EC91E00E948F
:100B6000B30262E082EC91E00E94B30282E191E084
:100B70000E948E0381E090E00E949B038CE291E052
:100B80000E948E0382E090E00E949B038EE291E03F
:100B90000E948E0363E082EC91E00E94B3020E9407
:100BA00062010091B4011091B5012091B60130911C
:100BB000B7014B015C01801A910AA20AB30A9501A0
:100BC0008401083E13402105310590F06093B40183
:100BD0007093B5018093B6019093B7018DE00E94A8
:100BE000B50061E0892B09F060E08DE00E94DE0035
:100BF00080E090E0892B09F4EACE0E947D028823F0
:100C000009F4E5CE0E940000E2CE88E893E10E945C
:100C10009B0188E893E10E942003EC010E9483037A
:100C20008111BDCFCA35D10509F4C5C180ED97E06A
:100C30000E946E01882389F060E083E00E94DE005C
:100C400080ED97E00E949B01882339F061E083E00A
:100C50000E94DE0080ED97E0DECF60E083E00E943E
:100C6000DE0081E090E0E7CE0E9462014B015C0172
:100C700082EC91E00E947102029774F40E9462017A
:100C8000681979098A099B09613D774081059105B9
:100C900078F30FEF1FEF0CC082EC91E00E944F023F
:100CA0008C0182EC91E00E944F02C12C0C29182B80
:100CB000C8010E948303811172CFE80117FF02C0AF
:100CC000D0E0C0E010926F0110926E01109271019D
:100CD000109270019CE380E00D33110514F49C2FF9
:100CE0008D2F9093AE018093AF011092B1011092BD
:100CF000B001D093B301C093B2011092C10110169C
:100D000011060CF04CCF80ED97E00E9420038C017F
:100D10000E948303811143CF0A35110559F009362A
:100D2000110589F3053A110571F30639110509F02A
:100D300091CEE9CF0E9469030E943D011B012C0165
:100D400092E3892E912CA12CB12C0E943D016219B5
:100D5000730984099509683E734081059105A8F3DC
:100D600081E0881A9108A108B10898EE290E93E055
:100D7000391E411C511C81149104A104B10429F7AE
:100D800085EA90E00E94C8010E947B03811107CF91
:100D90000D2F000F000B1C2F11951093C101CE01D8
:100DA00099270E94C8010E947B038111F8CE1D1B68
:100DB0001093C1018D2F902F0E94C8010E947B03C8
:100DC0008111EDCE0E9462014B015C01C091B20124
:100DD000D091B3011C161D060CF054C082EC91E0BA
:100DE0000E9471020091B0011091B101E090AE013A
:100DF000F090AF01181619069CF40E151F0584F427
:100E000082EC91E00E944F0298012F5F3F4F309398
:100E1000B1012093B001F801EE58FE4F8083DECF80
:100E2000E016F10679F520916E0130916F01809105
:100E30007001909171012817390721F5CE19DF094A
:100E4000D093B301C093B201A70162E771E082E3DE
:100E500091E00E941108F0926F01E0926E011092F1
:100E6000710110927001CD33D10514F0CCE3D0E0C4
:100E7000D093AF01C093AE011092B1011092B001B6
:100E80000E946903809170019091710120916E011F
:100E900030916F0182179307ECF49C012F5F3F4F55
:100EA00030937101209370018E5C9E4FFC01808114
:100EB000C82FD0E0CE010E948303811170CECE01F5
:100EC000D7FF02C090E080E02091C101281B209351
:100ED000C10172CF8091B2019091B3011816190629
:100EE0000CF04EC00E946201681979098A099B09B9
:100EF000693E73408105910508F468CFCFEFDFEFBD
:100F0000D9CFE8E1EE16F10409F411CE6E2D82EC92
:100F100091E00E94B3020F5F1F4FDECD82EC91E0A3
:100F20000E944F028831910509F439CE4B9709F0A0
:100F3000E6CD35CE80ED97E00E9420038C010E9423
:100F4000830381112CCEE80117FF02C0D0E0C0E07E
:100F50009091C1018C2F819589130FC063E082ECC1
:100F600091E00E94B302C3010197F1F7CE019927E6
:100F70000E94C8010E947B0312CE86E090E05BCD08
:100F8000C091C101D0E0CE010E94C8010E947B0344
:100F9000811105CE80ED97E00E9420038C010E9414
:100FA00083038111FCCDC80117FF02C090E080E0EF
:100FB000C817D90711F70E946903F1CDE2ECF1E0FF
:100FC0001382128288EE93E0A0E0B0E084839583E0
:100FD000A683B78384E091E09183808385EC90E0E1
:100FE0009587848784EC90E09787868780EC90E0F3
:100FF000918B808B81EC90E0938B828B82EC90E0E4
:10100000958B848B86EC90E0978B868B118E128E5D
:10101000138E148E0895EE0FFF1F0590F491E02DAE
:101020000994FB01DC0102C001900D924150504037
:08103000D8F70895F894FFCFF2
:1010380000000000B30213024002000371024F02D5
:101048006302506F7274666F6C696F2041726475C9
:10105800696E6F2044726976657220002E000D0A51
:02106800000086
:00000001FF
